:020000040000FA
:04000000E2EF7CF0BF
:10F99D00800F810F820F830F840F890F8A0F8B0FBA
:10F9AD008C0F8D0F920F930F940F950F960F0212D0
:10F9BD00223242526272039D0EF66EF90EF76E0000
:10F9CD000EF86E00EE01F010EE27F00900F5CFEE07
:10F9DD00FFE550E150FAE1000EF86E00014CEF7FAB
:10F9ED00F0306E080E2860FEEF7CF000EF7DF02EFB
:10F9FD00EF7DF029502A10D8A407EF7DF009EF7D97
:10FA0D00F00BEF7DF02EEF7DF028C02BF030500283
:10FA1D000D010EF324D96E000EF420DA6EDECF2C1C
:10FA2D00F0DDCF2DF02CC0D9FF2DC0DAFFDF502E29
:10FA3D006E2B2A24EF7DF0D8902E322B2E22EF7DC7
:10FA4D00F02E50010B29C0D9FF2AC0DAFFDF6E124C
:10FA5D000031503210D8B436EF7DF038EF7DF069BB
:10FA6D00EF7DF031C0D9FF32C0DAFFDF500F0B331D
:10FA7D006E050E336045EF7DF047EF7DF069EF7D4C
:10FA8D00F031C0D9FF32C0DAFFDF38070B336E0714
:10FA9D000E336454EF7DF056EF7DF058EF7DF06935
:10FAAD00EF7DF031C0D9FF32C0DAFFDF38070B2808
:10FABD006E010E296E31C0D9FF32C0DAFFDF500F53
:10FACD000B84EC7EF0120031503210D8B471EF7D02
:10FADD00F073EF7DF0A9EF7DF031C0D9FF32C0DAC0
:10FAED00FFDF500F0B336E050E336080EF7DF0821C
:10FAFD00EF7DF0A9EF7DF031C0D9FF32C0DAFFDF25
:10FB0D0038070B336E070E33648FEF7DF091EF7D69
:10FB1D00F093EF7DF0A9EF7DF031C0D9FF32C0DA5F
:10FB2D00FFDF38070B286E000E296E31C0D9FF326A
:10FB3D00C0DAFFDF500F0BE8EC7EF031C0D9FF3299
:10FB4D00C0DAFFDF9E120031503210D8B4B1EF7D14
:10FB5D00F0B3EF7DF0E9EF7DF031C0D9FF32C0DABF
:10FB6D00FFDF500F0B336E050E3360C0EF7DF0C21B
:10FB7D00EF7DF0E9EF7DF031C0D9FF32C0DAFFDF64
:10FB8D0038070B336E070E3364CFEF7DF0D1EF7D69
:10FB9D00F0D3EF7DF0E9EF7DF031C0D9FF32C0DA5F
:10FBAD00FFDF38070B286E010E296E31C0D9FF32E9
:10FBBD00C0DAFFDF500F0BE8EC7EF031C0D9FF3219
:10FBCD00C0DAFFDF8E120031503210D8B4F1EF7D64
:10FBDD00F0F3EF7DF035EF7EF031C0D9FF32C0DAB2
:10FBED00FFDF500F0B336E050E336000EF7EF0021A
:10FBFD00EF7EF035EF7EF031C0D9FF32C0DAFFDF96
:10FC0D0038070B336E070E33640FEF7EF011EF7E66
:10FC1D00F013EF7EF035EF7EF031C0D9FF32C0DA50
:10FC2D00FFDF38070B286E000E296E31C0D9FF3269
:10FC3D00C0DAFFDF500F0B84EC7EF031C0D9FF32FC
:10FC4D00C0DAFFDF38070B286E000E296E31C0D9E0
:10FC5D00FF32C0DAFFDF500F0BE8EC7EF0120031FF
:10FC6D00503210D8B43DEF7EF03FEF7EF083EF7E43
:10FC7D00F031C0D9FF32C0DAFFDF500F0B356E0502
:10FC8D000E35604CEF7EF04EEF7EF083EF7EF0315F
:10FC9D00C0D9FF32C0DAFFDF38070B356E070E35DE
:10FCAD00645BEF7EF05DEF7EF05FEF7EF083EF7EC5
:10FCBD00F031C0D9FF32C0DAFFDF38070B286E33C1
:10FCCD00C029F034C02AF031C0D9FF32C0DAFFDFCD
:10FCDD00500F0BF7EC7CF033C0D9FF34C0DAFFDFE7
:10FCED0050356E31C0D9FF32C0DAFF35323532DFD3
:10FCFD005035187F0B3518DF6E1200306E080E2848
:10FD0D00608BEF7EF08DEF7EF0E7EF7EF0D2EF7E31
:10FD1D00F028C02AF0010E2B6E2A2A98EF7EF0D81B
:10FD2D00902B362A2E96EF7EF02B50FF0A2C6E303C
:10FD3D0050020D150EF324D96E000EF420DA6EDE8E
:10FD4D00CF2DF0DDCF2EF02DC0D9FF2EC0DAFF2C38
:10FD5D0050DF16E7EF7EF028C02AF0010E2B6E2A39
:10FD6D002ABBEF7EF0D8902B362A2EB9EF7EF030DD
:10FD7D0050020D150EF324D96E000EF420DA6EDE4E
:10FD8D00CF2CF0DDCF2DF02CC0D9FF2DC0DAFF2BFD
:10FD9D0050DF12E7EF7EF029502A6E2B6A2B5000B0
:10FDAD000AD8B4DCEF7EF0E7EF7EF02A50000AD8D7
:10FDBD00B48FEF7EF0010AD8B4B2EF7EF0E7EF7E9C
:10FDCD00F01200306E080E2860EFEF7EF0F1EF7E3E
:10FDDD00F04BEF7FF036EF7FF028C02AF0010E2BAD
:10FDED006E2A2AFCEF7EF0D8902B362A2EFAEF7E63
:10FDFD00F02B50FF0A2C6E3050020D0B0EF324D950
:10FE0D006E000EF420DA6EDECF2DF0DDCF2EF02D4C
:10FE1D00C0D9FF2EC0DAFF2C50DF164BEF7FF02834
:10FE2D00C02AF0010E2B6E2A2A1FEF7FF0D8902BDF
:10FE3D00362A2E1DEF7FF03050020D0B0EF324D914
:10FE4D006E000EF420DA6EDECF2CF0DDCF2DF02C0F
:10FE5D00C0D9FF2DC0DAFF2B50DF124BEF7FF029F9
:10FE6D00502A6E2B6A2B50000AD8B440EF7FF04B0E
:10FE7D00EF7FF02A50000AD8B4F3EF7EF0010AD8D4
:10FE8D00B416EF7FF04BEF7FF01200000E3D6E00C9
:10FE9D000E3B6E000E3C6E080E396E270E316E0055
:10FEAD000E326E2FEC7DF0000E3D6E67EF7FF01F72
:10FEBD000E3D24316E326A000E3222EAEC7DF03DA9
:10FECD002A39503D5CD8A06EEF7FF070EF7FF05E69
:10FEDD00EF7FF0000E3D6E270E316E000E326E3B41
:10FEED000E336E000E346E36EC7EF03B04D8A482D9
:10FEFD00EF7FF084EF7FF0F2EF7FF0040E3D18D826
:10FF0D00A48BEF7FF08DEF7FF0A0EF7FF0000E3C24
:10FF1D006E1F0E3C24316E326A000E3222AAEC7D29
:10FF2D00F03C2A030E3C649EEF7FF0A0EF7FF08F34
:10FF3D00EF7FF0050E3D18D8A4A7EF7FF0A9EF7F56
:10FF4D00F0BCEF7FF0000E3C6E1F0E3C24316E3284
:10FF5D006A000E32226AEC7DF03C2A030E3C64BA34
:10FF6D00EF7FF0BCEF7FF0ABEF7FF0000E3A6EE766
:10FF7D00EF7FF01F0E3D24316E326A000E3222AA41
:10FF8D00EC7DF0030E386E8A0E376E560EE82EFE9F
:10FF9D00D7372EFCD7382EFAD71F0E3D24316E32AF
:10FFAD006A000E32226AEC7DF0030E386E8A0E372F
:10FFBD006E560EE82EFED7372EFCD7382EFAD73ACE
:10FFCD002A3A503D5CD8B0EEEF7FF0F0EF7FF0C0F5
:10FFDD00EF7FF0F3EF7FF03D063D2A050E3D64FA0D
:10FFED00EF7FF0FCEF7FF072EF7FF070EF7FF000AE
:03FFFD00EF00F022
:020000040020DA
:08000000FFFFFFFFFFFFFFFF00
:020000040030CA
:0E000000FF071F1FFF8B85FF0FC00FE00F4093
:00000001FF
