:020000040000FA
:0400000047EF7CF05A
:10F6D400800F810F820F830F840F890F8A0F8B0F86
:10F6E4008C0F8D0F920F930F940F950F960F03139A
:10F6F4002333400E306E000E316EF9EC7BF03E0E7B
:10F70400306E000E316EF9EC7BF03C0E306E000E64
:10F71400316EF9EC7BF03A0E306E000E316EF9EC7E
:10F724007BF01200400E306E000E316E13EC7CF054
:10F734003E0E306E000E316E13EC7CF03C0E306EDB
:10F74400000E316E13EC7CF03A0E306E000E316E0A
:10F7540013EC7CF01200400E306E000E316EF9ECAA
:10F764007BF03E0E306E000E316E2DEC7CF03C0EC4
:10F77400306E000E316E2DEC7CF03A0E306E000EC1
:10F78400316EF9EC7BF01200400E306E000E316EDB
:10F794002DEC7CF03E0E306E000E316E13EC7CF0DE
:10F7A4003C0E306E000E316E13EC7CF03A0E306E6F
:10F7B400000E316E2DEC7CF0120030503110D8A4C4
:10F7C400E6EF7BF0E8EF7BF0EAEF7BF0F8EF7BF01D
:10F7D40030C02CF031C02DF0C9EC7DF0010E302486
:10F7E4002C6E000E31202D6EC9EC7DF012003050CD
:10F7F4003110D8A400EF7CF002EF7CF004EF7CF031
:10F8040012EF7CF030C02CF031C02DF0FBEC7CF01A
:10F81400010E30242C6E000E31202D6E3BEC7DF059
:10F82400120030503110D8A41AEF7CF01CEF7CF099
:10F834001EEF7CF02CEF7CF030C02CF031C02DF0AA
:10F844003BEC7DF0010E30242C6E000E31202D6E29
:10F85400FBEC7CF0120030503110D8A434EF7CF073
:10F8640036EF7CF038EF7CF046EF7CF030C02CF0C3
:10F8740031C02DF0FBEC7CF0010E30242C6E000E18
:10F8840031202D6EFBEC7CF01200D40EF66EF60ED9
:10F89400F76E000EF86E00EE01F010EE22F0090093
:10F8A400F5CFEEFFE550E150FAE100EE35F00D0E34
:10F8B400EE6AE806FDE1000EF86E0001E2EF7EF06C
:10F8C400400E306E000E316E2DEC7CF03E0E306E2C
:10F8D400000E316E2DEC7CF03C0E306E000E316E5D
:10F8E4002DEC7CF03A0E306E000E316E2DEC7CF077
:10F8F400020E346E040E336EBA0EE82EFED7332E8B
:10F90400FCD7342EFAD700F000F012002B6E080E4C
:10F9140023608FEF7CF091EF7CF0BFEF7CF02450FC
:10F924002510D8A498EF7CF09AEF7CF09CEF7CF043
:10F93400BFEF7CF023C026F02B50020D010EF32400
:10F94400D96E000EF420DA6EDECF27F0DDCF28F07A
:10F9540027C0D9FF28C0DAFFDF50296E262AB5EF69
:10F964007CF0D8902932262EB3EF7CF02950010B7D
:10F9740024C0D9FF25C0DAFFDF6E12002C502D10F1
:10F98400D8B4C7EF7CF0C9EF7CF0FAEF7CF02CC060
:10F99400D9FF2DC0DAFFDF500F0B2E6E050E2E603F
:10F9A400D6EF7CF0D8EF7CF0FAEF7CF02CC0D9FFD6
:10F9B4002DC0DAFFDF38070B2E6E070E2E64E5EF3D
:10F9C4007CF0E7EF7CF0E9EF7CF0FAEF7CF02CC000
:10F9D400D9FF2DC0DAFFDF38070B236E010E246E2A
:10F9E4002CC0D9FF2DC0DAFFDF500F0B1AEC7EF0CC
:10F9F40012002C502D10D8B402EF7DF004EF7DF0EE
:10FA04003AEF7DF02CC0D9FF2DC0DAFFDF500F0B89
:10FA14002E6E050E2E6011EF7DF013EF7DF03AEFA0
:10FA24007DF02CC0D9FF2DC0DAFFDF38070B2E6E16
:10FA3400070E2E6420EF7DF022EF7DF024EF7DF0A1
:10FA44003AEF7DF02CC0D9FF2DC0DAFFDF38070B69
:10FA5400236E000E246E2CC0D9FF2DC0DAFFDF50B8
:10FA64000F0B7EEC7EF02CC0D9FF2DC0DAFFDF9E99
:10FA740012002C502D10D8B442EF7DF044EF7DF0ED
:10FA84007AEF7DF02CC0D9FF2DC0DAFFDF500F0BC9
:10FA94002E6E050E2E6051EF7DF053EF7DF07AEF60
:10FAA4007DF02CC0D9FF2DC0DAFFDF38070B2E6E96
:10FAB400070E2E6460EF7DF062EF7DF064EF7DF061
:10FAC4007AEF7DF02CC0D9FF2DC0DAFFDF38070BA9
:10FAD400236E010E246E2CC0D9FF2DC0DAFFDF5037
:10FAE4000F0B7EEC7EF02CC0D9FF2DC0DAFFDF8E29
:10FAF40012002C502D10D8B482EF7DF084EF7DF0ED
:10FB0400C8EF7DF02CC0D9FF2DC0DAFFDF500F0BFA
:10FB1400306E050E306091EF7DF093EF7DF0C8EF0D
:10FB24007DF02CC0D9FF2DC0DAFFDF38070B306E13
:10FB3400070E3064A0EF7DF0A2EF7DF0A4EF7DF01E
:10FB4400C8EF7DF02CC0D9FF2DC0DAFFDF38070BDA
:10FB5400236E2EC024F02FC025F02CC0D9FF2DC059
:10FB6400DAFFDF500F0B88EC7CF02EC0D9FF2FC0DA
:10FB7400DAFFDF50306E2CC0D9FF2DC0DAFF3032EF
:10FB84003032DF5030187F0B3018DF6E12002C50EB
:10FB94002D10D8B4D0EF7DF0D2EF7DF019EF7EF0C8
:10FBA4002CC0D9FF2DC0DAFFDF500F0B2E6E050ECF
:10FBB4002E60DFEF7DF0E1EF7DF019EF7EF02CC0D9
:10FBC400D9FF2DC0DAFFDF38070B2E6E070E2E6427
:10FBD400EEEF7DF0F0EF7DF0F2EF7DF019EF7EF0C7
:10FBE4002CC0D9FF2DC0DAFFDF38070B236E000EBF
:10FBF400246E2CC0D9FF2DC0DAFFDF500F0B1AEC96
:10FC04007EF02CC0D9FF2DC0DAFFDF38070B236E3E
:10FC1400000E246E2CC0D9FF2DC0DAFFDF500F0B6D
:10FC24007EEC7EF02CC0D9FF2DC0DAFFDF9E1200DF
:10FC34002B6E080E236021EF7EF023EF7EF07DEF24
:10FC44007EF068EF7EF023C025F0010E266E252A93
:10FC54002EEF7EF0D8902636252E2CEF7EF02650FF
:10FC6400FF0A276E2B50020D150EF324D96E000ED9
:10FC7400F420DA6EDECF28F0DDCF29F028C0D9FFDA
:10FC840029C0DAFF2750DF167DEF7EF023C025F070
:10FC9400010E266E252A51EF7EF0D8902636252EA9
:10FCA4004FEF7EF02B50020D150EF324D96E000E8B
:10FCB400F420DA6EDECF27F0DDCF28F027C0D9FF9D
:10FCC40028C0DAFF2650DF127DEF7EF02450256E27
:10FCD400266A2650000AD8B472EF7EF07DEF7EF0DB
:10FCE4002550000AD8B425EF7EF0010AD8B448EFB5
:10FCF4007EF07DEF7EF012002B6E080E236085EF00
:10FD04007EF087EF7EF0E1EF7EF0CCEF7EF023C053
:10FD140025F0010E266E252A92EF7EF0D890263625
:10FD2400252E90EF7EF02650FF0A276E2B50020DF1
:10FD34000B0EF324D96E000EF420DA6EDECF28F019
:10FD4400DDCF29F028C0D9FF29C0DAFF2750DF16FC
:10FD5400E1EF7EF023C025F0010E266E252AB5EFD3
:10FD64007EF0D8902636252EB3EF7EF02B50020D70
:10FD74000B0EF324D96E000EF420DA6EDECF27F0DA
:10FD8400DDCF28F027C0D9FF28C0DAFF2650DF12C4
:10FD9400E1EF7EF02450256E266A2650000AD8B47E
:10FDA400D6EF7EF0E1EF7EF02550000AD8B489EF5B
:10FDB4007EF0010AD8B4ACEF7EF0E1EF7EF01200E1
:10FDC4004050F00B0209406E8F0E4016409E415089
:10FDD400F00B0209416E41508F0B1009416E419E98
:10FDE400400E306E000E316EDFEC7BF03E50F00BB7
:10FDF40002093E6E3E508F0B20093E6E3E9E3F50E0
:10FE0400F00B02093F6E3F508F0B30093F6E3F9E4F
:10FE14003E0E306E000E316EDFEC7BF03C50F00B8A
:10FE240002093C6E3C508F0B40093C6E3C9E3D5099
:10FE3400F00B02093D6E3D508F0B50093D6E3D9E07
:10FE44003C0E306E000E316EDFEC7BF03A50F00B5E
:10FE540002093A6E3A508F0B60093A6E3A9E3B5053
:10FE6400F00B02093B6E700E3B123B9E3A0E306E55
:10FE7400000E316EDFEC7BF0000E356E1F0E352464
:10FE84002C6E2D6A000E2D22C0EC7CF0352A030E58
:10FE940035644FEF7FF051EF7FF040EF7FF0000EBD
:10FEA400356E1F0E35242C6E2D6A000E2D22360E53
:10FEB40035242E6E2F6A000E2F227BEC7DF0352A1E
:10FEC400030E356468EF7FF06AEF7FF053EF7FF045
:10FED4003604D8A470EF7FF072EF7FF08EEF7FF0DE
:10FEE4003750D8A478EF7FF07AEF7FF08EEF7FF071
:10FEF4003850D8A480EF7FF082EF7FF08EEF7FF050
:10FF04003950D8A488EF7FF08AEF7FF08EEF7FF02E
:10FF140094EC7BF051EF7FF03650D8A494EF7FF04F
:10FF240096EF7FF0B2EF7FF03704D8A49CEF7FF018
:10FF34009EEF7FF0B2EF7FF03850D8A4A4EF7FF0AB
:10FF4400A6EF7FF0B2EF7FF03950D8A4ACEF7FF08A
:10FF5400AEEF7FF0B2EF7FF07BEC7BF051EF7FF000
:10FF64003650D8A4B8EF7FF0BAEF7FF0D6EF7FF029
:10FF74003750D8A4C0EF7FF0C2EF7FF0D6EF7FF008
:10FF84003804D8A4C8EF7FF0CAEF7FF0D6EF7FF033
:10FF94003950D8A4D0EF7FF0D2EF7FF0D6EF7FF0C6
:10FFA400C6EC7BF051EF7FF03650D8A4DCEF7FF045
:10FFB400DEEF7FF0FAEF7FF03750D8A4E4EF7FF064
:10FFC400E6EF7FF0FAEF7FF03850D8A4ECEF7FF043
:10FFD400EEEF7FF0FAEF7FF03904D8A4F4EF7FF06E
:10FFE400F6EF7FF0FAEF7FF0ADEC7BF051EF7FF0AE
:0CFFF40062EC7CF051EF7FF000EF00F0B9
:020000040020DA
:08000000FFFFFFFFFFFFFFFF00
:020000040030CA
:0E000000FF071F1FFF8B85FF0FC00FE00F4093
:00000001FF
