:020000040000FA
:0400000012EF7DF08E
:10F9FD00800F810F820F830F840F890F8A0F8B0F5A
:10FA0D008C0F8D0F920F930F940F950F960F02126F
:10FA1D0022324252627203FD0EF66EF90EF76E003F
:10FA2D000EF86E00EE01F010EE27F00900F5CFEEA6
:10FA3D00FFE550E150FAE1000EF86E00017CEF7F1A
:10FA4D00F0306E080E28602EEF7DF030EF7DF05E09
:10FA5D00EF7DF029502A10D8A437EF7DF039EF7DD6
:10FA6D00F03BEF7DF05EEF7DF028C02BF0305002C3
:10FA7D000D010EF324D96E000EF420DA6EDECF2CBC
:10FA8D00F0DDCF2DF02CC0D9FF2DC0DAFFDF502EC9
:10FA9D006E2B2A54EF7DF0D8902E322B2E52EF7D07
:10FAAD00F02E50010B29C0D9FF2AC0DAFFDF6E12EC
:10FABD000031503210D8B466EF7DF068EF7DF099CB
:10FACD00EF7DF031C0D9FF32C0DAFFDF500F0B33BD
:10FADD006E050E336075EF7DF077EF7DF099EF7D5C
:10FAED00F031C0D9FF32C0DAFFDF38070B336E07B4
:10FAFD000E336484EF7DF086EF7DF088EF7DF09915
:10FB0D00EF7DF031C0D9FF32C0DAFFDF38070B28A7
:10FB1D006E010E296E31C0D9FF32C0DAFFDF500FF2
:10FB2D000BB4EC7EF0120031503210D8B4A1EF7D41
:10FB3D00F0A3EF7DF0D9EF7DF031C0D9FF32C0DAFF
:10FB4D00FFDF500F0B336E050E3360B0EF7DF0B25B
:10FB5D00EF7DF0D9EF7DF031C0D9FF32C0DAFFDF94
:10FB6D0038070B336E070E3364BFEF7DF0C1EF7DA9
:10FB7D00F0C3EF7DF0D9EF7DF031C0D9FF32C0DA9F
:10FB8D00FFDF38070B286E000E296E31C0D9FF320A
:10FB9D00C0DAFFDF500F0B18EC7FF031C0D9FF3208
:10FBAD00C0DAFFDF9E120031503210D8B4E1EF7D84
:10FBBD00F0E3EF7DF019EF7EF031C0D9FF32C0DAFE
:10FBCD00FFDF500F0B336E050E3360F0EF7DF0F25B
:10FBDD00EF7DF019EF7EF031C0D9FF32C0DAFFDFD3
:10FBED0038070B336E070E3364FFEF7DF001EF7EA8
:10FBFD00F003EF7EF019EF7EF031C0D9FF32C0DA9D
:10FC0D00FFDF38070B286E010E296E31C0D9FF3288
:10FC1D00C0DAFFDF500F0B18EC7FF031C0D9FF3287
:10FC2D00C0DAFFDF8E120031503210D8B421EF7ED2
:10FC3D00F023EF7EF065EF7EF031C0D9FF32C0DAF0
:10FC4D00FFDF500F0B336E050E336030EF7EF03259
:10FC5D00EF7EF065EF7EF031C0D9FF32C0DAFFDF05
:10FC6D0038070B336E070E33643FEF7EF041EF7EA6
:10FC7D00F043EF7EF065EF7EF031C0D9FF32C0DA90
:10FC8D00FFDF38070B286E000E296E31C0D9FF3209
:10FC9D00C0DAFFDF500F0BB4EC7EF031C0D9FF326C
:10FCAD00C0DAFFDF38070B286E000E296E31C0D980
:10FCBD00FF32C0DAFFDF500F0B18EC7FF01200316E
:10FCCD00503210D8B46DEF7EF06FEF7EF0B3EF7E53
:10FCDD00F031C0D9FF32C0DAFFDF500F0B356E05A2
:10FCED000E35607CEF7EF07EEF7EF0B3EF7EF0316F
:10FCFD00C0D9FF32C0DAFFDF38070B356E070E357E
:10FD0D00648BEF7EF08DEF7EF08FEF7EF0B3EF7EA4
:10FD1D00F031C0D9FF32C0DAFFDF38070B286E3360
:10FD2D00C029F034C02AF031C0D9FF32C0DAFFDF6C
:10FD3D00500F0B27EC7DF033C0D9FF34C0DAFFDF55
:10FD4D0050356E31C0D9FF32C0DAFF35323532DF72
:10FD5D005035187F0B3518DF6E1200306E080E28E7
:10FD6D0060BBEF7EF0BDEF7EF017EF7FF002EF7F0F
:10FD7D00F028C02AF0010E2B6E2A2AC8EF7EF0D88B
:10FD8D00902B362A2EC6EF7EF02B50FF0A2C6E30AC
:10FD9D0050020D150EF324D96E000EF420DA6EDE2E
:10FDAD00CF2DF0DDCF2EF02DC0D9FF2EC0DAFF2CD8
:10FDBD0050DF1617EF7FF028C02AF0010E2B6E2AA8
:10FDCD002AEBEF7EF0D8902B362A2EE9EF7EF0301D
:10FDDD0050020D150EF324D96E000EF420DA6EDEEE
:10FDED00CF2CF0DDCF2DF02CC0D9FF2DC0DAFF2B9D
:10FDFD0050DF1217EF7FF029502A6E2B6A2B50001F
:10FE0D000AD8B40CEF7FF017EF7FF02A50000AD814
:10FE1D00B4BFEF7EF0010AD8B4E2EF7EF017EF7FAA
:10FE2D00F01200306E080E28601FEF7FF021EF7F7B
:10FE3D00F07BEF7FF066EF7FF028C02AF0010E2BEC
:10FE4D006E2A2A2CEF7FF0D8902B362A2E2AEF7FA0
:10FE5D00F02B50FF0A2C6E3050020D0B0EF324D9EF
:10FE6D006E000EF420DA6EDECF2DF0DDCF2EF02DEC
:10FE7D00C0D9FF2EC0DAFF2C50DF167BEF7FF028A4
:10FE8D00C02AF0010E2B6E2A2A4FEF7FF0D8902B4F
:10FE9D00362A2E4DEF7FF03050020D0B0EF324D984
:10FEAD006E000EF420DA6EDECF2CF0DDCF2DF02CAF
:10FEBD00C0D9FF2DC0DAFF2B50DF127BEF7FF02969
:10FECD00502A6E2B6A2B50000AD8B470EF7FF07B4E
:10FEDD00EF7FF02A50000AD8B423EF7FF0010AD843
:10FEED00B446EF7FF07BEF7FF01200000E3C6E000A
:10FEFD000E3B6E080E3A6E270E316E000E326E5F9F
:10FF0D00EC7DF0000E3C6E95EF7FF01F0E3C243122
:10FF1D006E326A000E32221AEC7EF03C2A3A503CC8
:10FF2D005CD8A09CEF7FF09EEF7FF08CEF7FF00010
:10FF3D000E3C6EF3EF7FF0270E316E000E326E3BEE
:10FF4D000E336E000E346E66EC7EF03B04D8A4B218
:10FF5D00EF7FF0B4EF7FF0EAEF7FF0000E396EDF48
:10FF6D00EF7FF01F0E3C24316E326A000E3222DA22
:10FF7D00EC7DF0060E386E130E376EAE0EE82EFECB
:10FF8D00D7372EFCD7382EFAD71F0E3C24316E32C0
:10FF9D006A000E32229AEC7DF0060E386E130E3783
:10FFAD006EAE0EE82EFED7372EFCD7382EFAD73987
:10FFBD002A39503C5CD8B0E6EF7FF0E8EF7FF0B81F
:10FFCD00EF7FF0F2EF7FF01F0E3C24316E326A00AE
:10FFDD000E32229AEC7DF03C2A3A503C5CD8A0FAC5
:10FFED00EF7FF0FCEF7FF0A2EF7FF09EEF7FF00050
:03FFFD00EF00F022
:020000040020DA
:08000000FFFFFFFFFFFFFFFF00
:020000040030CA
:0E000000FF071F1FFF8B85FF0FC00FE00F4093
:00000001FF
